:020000040000FA
:100000002886FF1F9502000079240000812400004B
:1000100089240000912400009924000000000000C1
:10002000000000000000000000000000A12400000B
:10003000A924000000000000B1240000B924000041
:10004000C1240000D1240000E1240000F1240000BC
:1000500001250000112500002125000031250000A8
:100060004125000051250000612500007125000098
:100070008125000091250000A1250000B125000088
:10008000C1250000D1250000E1250000F125000078
:100090000126000011260000212600003126000064
:1000A0004126000051260000612600007126000054
:1000B0008126000091260000A1260000B126000044
:1000C000C1260000D5260000E9260000FD2600001C
:1000D00011270000312700004527000059270000A4
:1000E0006D2700008127000095270000A927000048
:1000F000BD270000D1270000E5270000F9270000F8
:100100000D280000212800003528000049280000A3
:100110005D28000071280000852800009928000053
:10012000AD280000C1280000D5280000E928000003
:10013000FD280000112900002529000039290000B0
:100140004D2900006129000075290000892900005F
:100150009D290000B1290000C5290000D92900000F
:10016000ED290000012A0000152A0000292A0000BC
:100170003D2A0000512A0000652A0000792A00006B
:100180008D2A0000A12A0000B52A0000C92A00001B
:10019000DD2A0000F12A0000052B00001D2B0000C5
:1001A000312B0000452B0000592B00006D2B000067
:1001B000812B0000952B0000A92B0000BD2B000017
:1001C000D12B0000E52B0000F92B00000D2C0000C6
:1001D000212C0000352C0000492C00005D2C000073
:1001E000712C0000852C0000992C0000AD2C000023
:1001F000C12C0000D52C0000E92C0000FD2C0000D3
:10020000112D0000252D0000392D00004D2D00007E
:10021000612D0000752D0000892D00009D2D00002E
:10022000B12D0000C52D0000D92D0000ED2D0000DE
:10023000012E0000152E0000292E00003D2E00008A
:10024000512E0000A32F0000FD330000BB3400003E
:10025000AD370000D7020000D7020000D70200002F
:100260000B390000393C0000A53E0000F9400000B9
:100270001742000003440000654600005747000095
:10028000DFF80CD007F022FA00480047C90300004D
:100290002886FF1F10484FF0770101600F484FF08C
:1002A000770101600E484FF4885101600A484FF011
:1002B0007601016009484FF07601016009488047E6
:1002C00009480047FEE7FEE7FEE7FEE7FEE7FEE738
:1002D000FEE7FEE7FEE7FEE7040805400C080540E0
:1002E000000805409F0300008102000070B5002453
:1002F00013200121002200232E4D2D7805F0070444
:10030000062C4AD2DFE804F003070B1014192A4D1B
:100310002A4E356041E02A4D284E35603DE04FF4CD
:100320000045264E356038E0254D244E356034E0DA
:100330004FF40045214E35602FE01E4DDA352D6813
:10034000C5F3C0131B4D263DD5F80051C5F3082059
:10035000184DDA352D68290F164D263DD5F8005178
:1003600005F01F025BB9551C154EB6FBF5F5461C92
:1003700075434E1CB5FBF6F5104E35600CE0012BB5
:100380000AD1551C0C4EB6FBF5F5461C75434E1CA8
:10039000B5FBF6F5094E356000BF00BF70BD00B576
:1003A0000848006840F4700006490860FFF79EFFA7
:1003B00000BD0000264005400024F4000080FF1F1F
:1003C00000127A0088ED00E000F082F900F004F9F4
:1003D00000F05CF80EE04FF4FA7000F013FA3121EF
:1003E000054805F09FFF00BF8021034805F0D0FCC1
:1003F0000028F9D0EFE7000000D00140704700006E
:10040000FFFFFFFFFFFFFFFFFFFFFFFFFFFFFFFFFC
:10041000FFFFFFFFFFFFFFFFFFFFFFFFFFFFFFFFEC
:1004200010B5002804DB0A07130E5B4A135406E0DC
:100430000A07140E594A00F00F031B1FD45410BDB5
:1004400010B5574805F075FF044610BD10B50221E0
:10045000534805F09DFC012803D10221504805F0C6
:100460009FFC01214E4805F093FC012803D1012196
:100470004B4805F095FC0821494805F089FC012806
:1004800003D10821464805F08BFC10BD10B586B09D
:10049000002401214FF0706004F0DAFB00232122D8
:1004A0004FF48061184601F0E4FE00232022110180
:1004B000184601F0DEFE3B4A07CA01AB07C301A99B
:1004C000374805F0BDF804460CB100BFFEE74FF415
:1004D000E131334806F03DF904460CB100BFFEE7B8
:1004E0000020ADF812003048059040F21710ADF82A
:1004F000100004A801F0FEFEBDF912000021FFF774
:100500008FFFBDF9120000F03BF8BDF9120000F0BA
:100510002AF80120ADF81200244805904FF48B70A2
:10052000ADF8100004A801F0E5FEBDF912000021AD
:10053000FFF776FFBDF9120000F022F8BDF91200B6
:1005400000F011F801220021154805F062FC01229B
:100550001146134805F05DFC01220221104805F008
:1005600058FC06B010BD002809DB00F01F02012175
:1005700091404209920002F1E022C2F80011704756
:10058000002807DB00F01F0201219140084A4309BF
:1005900042F823107047000000E400E018ED00E08E
:1005A00000D001400C770000410400004D04000021
:1005B00080E200E010B541480068401C3F490860F7
:1005C00008460068B0F57A7F05DD00200860411E0E
:1005D000012000F0E8F810BD30B58DB000BF00205C
:1005E0000B900C9000BF00BF09900A9000BF01A8BB
:1005F00000F0D7FD059C012000F086FA01210220C1
:1006000004F034FB00208DF82F008DF82D000A2017
:100610008DF82C00A00A4FF47A71B0FBF1F0401E67
:1006200080B2ADF830000BAA0021254806F094FAFC
:1006300001220021224806F0D2F91920ADF8260047
:100640004220ADF82400AFF293000A9009A801F00F
:1006500051FEBDF92600002807DB00F01F02012132
:100660009140184A430942F8231000BFBDF9260003
:100670000F21002804DB0A07130E134A135406E067
:100680000A07150E114A00F00F031B1FD55400BFB7
:10069000BDF92600002809DB00F01F02012191406E
:1006A0004209920002F1E022C2F8001100BF0122CB
:1006B0000021034806F00DF90DB030BD0480FF1F86
:1006C0000044024080E200E000E400E018ED00E0B9
:1006D00000B589B000BF0020089000BF00BF0690A1
:1006E000079000BF00BF059000BF00BF14216846FF
:1006F00006F0C2FF00BF00208DF8180001208DF821
:10070000190000208DF81A0002208DF81B008DF8CA
:100710001C008DF81D0001208DF81E0006A800F0B9
:10072000D5FC00208DF8150002208DF81600012060
:100730008DF8140005A800F0A1F8012000F05CF984
:10074000012004902A200390022000900190029042
:10075000002000F02AFB684600F042FB01F078F927
:10076000052001F095F901F07BF9012000F07AFBFA
:1007700000BF022000F003F90128FAD1052000F0A3
:1007800032FC09B000BD00001CB500BF0020009085
:10079000019000BF01208DF800006A46410302204D
:1007A00001F002FC1CBD70B504460D4614480078EB
:1007B00020B9012012490870FFF7E6FF012C17D17C
:1007C000B5F1FF3F0DD035B1012D10D161030220ED
:1007D00001F00BFD0BE04FF40051022001F011FD80
:1007E00005E04FF40051022001F017FD00BF05E0C5
:1007F00024B94FF40051022001F0BFFC70BD00008D
:100800000880FF1F08B5002200920021194A1168D4
:1008100042F21072B1FBF2F106E0009100BF009AC3
:10082000531E0093002AFAD10200A0F10100F4D176
:1008300008BD08B50122002100910E4909680E4B40
:10084000994210D90B490968B1FBF3F206E0009216
:1008500000BF00994B1E00930029FAD10100A0F1BE
:100860000100F4D104E000BF0100A0F10100FBD1C0
:1008700008BD00000080FF1F8096980058B3F7491C
:1008800009884AF201521143F44A11800278F3496F
:100890001231097862F3C711F04A123211704278AE
:1008A000EE491231097862F38611EC4A1232117066
:1008B0008278EA491231097862F30511E74A123267
:1008C0001170E64909884FF6FE72114041F4254146
:1008D000E34AA2F8FE137047E04909884AF2015240
:1008E0001143DF4AA2F8FE13114691F8A21060F3FB
:1008F000030182F8A2101146B1F8FE134FF6FE7202
:10090000114041F42541D64AA2F8FE137047A8B31E
:10091000D24909884AF201521143D04A1180027823
:10092000CF4991F8401062F3C711CD4A403211709F
:100930004278CB4991F8401062F38201C84A4032B4
:1009400011708278C64991F8401062F34101C44A9F
:1009500040321170C278C24991F8401062F3000130
:10096000BF4A82F840101146B1F8FE134FF6FE72EE
:10097000114041F42541BA4AA2F8FE1370470146DE
:1009800031B101290ED0022916D0032928D11DE04A
:10099000B34A3C32127802F0010282F0010282F086
:1009A000010027E0AE4A3C321278C2F3C00282F066
:1009B000010282F001001DE0A94A3C321278C2F324
:1009C000401282F0010282F0010013E0A44A3C329E
:1009D0001278C2F3801282F0010282F0010009E075
:1009E0009F4A4132127802F0010282F0010282F045
:1009F000010000BF00BF704738B5044600200090DA
:100A00000025964800884AF2015108439449A1F80C
:100A1000FE034CBB92482630007800F00700032804
:100A200001D1012536E08F480068C0F3C01088B9B5
:100A30008B482A30007800F0010008B9012529E030
:100A400087483230007820F00100401C844981F84A
:100A500032001FE082483230007820F00100401C54
:100A60007F4981F8320015E07D483230007820F06F
:100A700001007B4981F8320000BF0120FFF77FFFB2
:100A800003460098401C00900098B0F5805F01D2AA
:100A9000012BF2D1714800884FF6FE71084040F4F6
:100AA00025406F49A1F8FE03284638BD58B36B496D
:100AB00009884AF201521143684A11800278674955
:100AC0002331097862F38201644A2332117042783B
:100AD00062492331097862F30101604A23321170BF
:100AE00082785E492731097862F301015B4A273237
:100AF00011705A4909884FF6FE72114041F42541A0
:100B0000574AA2F8FE13704708B50146002200922A
:100B10000020524A12884AF201531A43504BA3F85C
:100B2000FE2391B94E4A2632127802F00702042AB7
:100B300001D1012018E0494A2232127822F0010244
:100B4000521C464B22331A700EE0444A223212786D
:100B500022F00102414B22331A7000BF009A521C4E
:100B60000092009A052AF9D33C4A12884FF6FE7388
:100B70001A4042F425423A4BA3F8FE2308BD3749F8
:100B800009884AF201521143354AA2F8FE1382F84D
:100B900062001146B1F8FE134FF6FE72114041F4A7
:100BA00025412E4A1180704738B504460020009038
:100BB00000252A4800884AF2015108432849A1F833
:100BC000FE0344BB26482630007800F0070008B931
:100BD000012536E023480068C0F3C01088B12048E2
:100BE0002A30007800F0010008B9012529E01C48EE
:100BF0003630007820F00100401C194981F8360099
:100C00001FE017483630007820F00100401C1449DE
:100C100081F8360015E012483630007820F00100E7
:100C20000F4981F8360000BF0020FFF7A8FE0346F9
:100C30000098401C00900098B0F5805F01D2012B15
:100C4000F2D1064800884FF6FE71084040F4254076
:100C50000349A1F8FE03284638BD0000FE430540C5
:100C60000040054000410540FE4909884AF2015212
:100C70001143FD4AA2F8FE1382F861001146B1F853
:100C8000FE134FF6FE72114041F42541F54A1180E2
:100C9000704708B50146002200920020F14A1288F0
:100CA0004AF201531A43F04BA3F8FE2391B9EE4ADE
:100CB0002632127802F00702012A01D1012018E041
:100CC000E94A3832127822F00102521CE64B83F8CE
:100CD00038200EE0E44A3832127822F00102E24B6A
:100CE00083F8382000BF009A521C0092009A052A0F
:100CF000F9D3DC4A12884FF6FE731A4042F42542BB
:100D0000D94BA3F8FE2308BDD64909884AF20152FF
:100D10001143D54AA2F8FE13D24A2B321070D149A2
:100D200009884FF6FE72114041F42541CE4AA2F8DF
:100D3000FE13704708B50146002200920020C94A00
:100D400012884AF201531A43C74BA3F8FE2391B904
:100D5000C54A2632127802F00702022A01D1012088
:100D600018E0C04A2932127822F00102521CBD4B11
:100D700029331A700EE0BB4A2932127822F00102A0
:100D8000B84B29331A7000BF009A521C0092009A87
:100D9000052AF9D3B34A12884FF6FE731A4042F47B
:100DA0002542B14BA3F8FE2308BDAE4909884AF29B
:100DB00001521143AC4AA2F8FE131146D1F80011BA
:100DC00060F3C711C2F800111146B1F8FE134FF6D7
:100DD000FE72114041F42541A34AA2F8FE13704768
:100DE00000283ED09F4909884AF2015211439D4A8A
:100DF00011800178491E9C4AD2F8002161F31F72CC
:100E00009A490A600179491E974AD2F8002161F394
:100E10001B6296490A60017A491E934AD2F8002162
:100E200061F3175291490A608189491E8E4AD2F8AE
:100E3000002161F310228D490A60017C491E8A4A13
:100E4000D2F8002161F304028749C1F80021B1F80A
:100E5000FE134FF6FE72114041F42541824AA2F87A
:100E6000FE13704738B504460020009000257D48E9
:100E700000884AF2015108437B49A1F8FE0394B966
:100E800079482630007800F00700052801D10125B7
:100E90001FE075482A30007820F00100401C72499C
:100EA00081F82A0015E070482A30007820F001000F
:100EB0006D4981F82A0000BF0220FFF760FD03465C
:100EC0000098401C00900098B0F5805F01D2012B83
:100ED000F2D1644800884FF6FE71084040F4254086
:100EE0006149A1F8FE03284638BD002842D05D497B
:100EF00009884AF2015211435A4A11800178491E69
:100F0000594AD2F8042161F31F725849091D0A6039
:100F10000179491E544AD2F8042161F31B625349F6
:100F2000091D0A60017A491E4F4AD2F8042161F373
:100F300017524E49091D0A608189491E4A4AD2F852
:100F4000042161F310224949091D0A60017C491EF0
:100F5000454AD2F8042161F304024349C1F804214F
:100F6000B1F8FE134FF6FE72114041F425413E4A9E
:100F7000A2F8FE13704718B50346002000903948C8
:100F800000884AF2015108433749A1F8FE03012BBA
:100F900001D0012000E0002033492E31097860F3B0
:100FA0000001314880F82E102E4800884FF6FE715F
:100FB000084040F425402C49A1F8FE0300BF03205F
:100FC000FFF7DDFC04460098401C00900098B0F547
:100FD000805F06D2012B01D1012000E00020A04259
:100FE000EDD1002018BD10B586B004460020059054
:100FF0001F48006804901E48406803901C488068A1
:1010000002901B48C068019017482630007800F015
:101010000700052801D0052C0DD116481449086099
:10102000C01248608860C86000BF0598401C0590E9
:101030000598B028F9D30B4800884AF201510843BB
:101040000949A1F8FE03084690F8260064F302005F
:1010500081F826000846B0F8FE034FF6FE710840FE
:101060000AE00000FE430540004005400041054005
:1010700000800440EEFAFFFF40F42540FE49A1F84D
:10108000FE030020059000BF0598401C05900598C0
:10109000B028F9D3F9490498086003984860029889
:1010A00088600198C8600020059000BF0598401C2A
:1010B00005900598B028F9D3FFF718F906B010BDD0
:1010C000ED482630007800F00700704785B0002119
:1010D0000491EA4909680391E84949680291E7499E
:1010E00089680191E549C9680091002857D0E24913
:1010F0002631097801F0070105290DD1E049DF4AC1
:101100001160C91251609160D16000BF0499491CFF
:1011100004910499B029F9D3DA4909884AF20152B5
:101120001143D84A11808178C27841EA02110279CC
:1011300041EA0221427941EA0231827941EA0241DF
:10114000427841EA0251027841EA026141EA0271C1
:10115000C94A1162CB4909884FF6FE72114041F429
:101160002541C54AA2F8FE130021049100BF04994D
:10117000491C04910499B029F9D3C04A039911601C
:1011800002995160019991600099D1600021049108
:1011900000BF0499491C04910499B029F9D305B002
:1011A000704770B50021002200240023002878D069
:1011B000B14D26352D7805F00705052D15D2DFE850
:1011C00005F00306090D1000AF4D056037E0AF4D87
:1011D000056034E04FF40045056030E0AB4D05603C
:1011E0002DE04FF40045056029E0A94D2D68C5F3B9
:1011F000C013A14DD5F800512A0FA54D2D68C5F398
:1012000008219D4DD5F8005105F01F0453B9651C08
:101210009E4EB6FBF5F54E1C7543561CB5FBF6F518
:1012200005600BE0012B09D1651C974EB6FBF5F567
:101230004E1C7543561CB5FBF6F5056000BF00BF9C
:101240008D4E0568366AC6F30266F54045608A4EE3
:101250000568366AC6F30256F5408560864E056815
:10126000366A06F00706F540C560834E0568366AA3
:10127000C6F30216F54005617F4E0568366AC6F36F
:101280000226F54045617C4E0568366AC6F3023693
:10129000F5408561784E0568366AC6F30246F5402A
:1012A000C56170BD2DE9F04F0021002600278C4656
:1012B00000220023884689468A460024DFF8B8B118
:1012C000DBF800B1CBF3C015DFF8ACB1DBF800B14F
:1012D0004FEA1B76DFF8A0B1DBF800B1CBF3036770
:1012E000DFF894B1DBF800B1CBF3035CDFF888B131
:1012F000DBF800B1CBF30821DFF87CB1DBF800B1FB
:101300000BF01F02DFF870B1DBF804B14FEA1B7875
:10131000DFF864B1DBF804B1CBF30369DFF858B14F
:10132000DBF804B1CBF3035ADFF84CB1DBF804B1BE
:10133000CBF30823DFF840B1DBF804B10BF01F0456
:10134000F5BB02F1010BDFF844E1BEFBFBFB01F151
:10135000010E0BFB0EFB06F1010EBBFBFEFBC0F802
:1013600000B002F1010BDFF824E1BEFBFBFB01F151
:10137000010E0BFB0EFB07F1010EBBFBFEFBC0F8E1
:1013800004B002F1010BDFF804E1BEFBFBFB01F14D
:10139000010E0BFB0EFB0CF1010EBBFBFEFBC0F8BC
:1013A00008B004F1010BDFF8E4E0BEFBFBFB03F146
:1013B000010E0BFB0EFB08F1010EBBFBFEFB00E078
:1013C00022E0C0F80CB004F1010BDFF8C0E0BEFB76
:1013D000FBFB03F1010E0BFB0EFB09F1010EBBFB46
:1013E000FEFBC0F810B004F1010BDFF8A0E0BEFB7B
:1013F000FBFB03F1010E0BFB0EFB0AF1010EBBFB25
:10140000FEFBC0F814B071E0012D6FD102F1010BA9
:10141000DFF874E0BEFBFBFB01F1010E0BFB0EFBE2
:1014200006F1010EBBFBFEFBC0F800B002F1010BA0
:10143000DFF854E0BEFBFBFB01F1010E0BFB0EFBE2
:1014400007F1010EBBFBFEFBC0F804B002F1010B7B
:10145000DFF834E0BEFBFBFB01F1010E0BFB0EFBE2
:101460000CF1010EBBFBFEFBC0F808B004F1010B50
:10147000DFF814E00EE0000000400540008004406A
:10148000EEFAFFFFFE4305400024F40000127A004C
:1014900000410540BEFBFBFB03F1010E0BFB0EFB05
:1014A00008F1010EBBFBFEFBC0F80CB004F1010B10
:1014B000DFF838E4BEFBFBFB03F1010E0BFB0EFB78
:1014C00009F1010EBBFBFEFBC0F810B004F1010BEB
:1014D000DFF818E4BEFBFBFB03F1010E0BFB0EFB78
:1014E0000AF1010EBBFBFEFBC0F814B0BDE8F08FA3
:1014F00085B000210491FE4909680391FC494968BF
:101500000291FB4989680191F949C9680091F9493B
:10151000097801F0070105291BD1F549096841F453
:101520008031F34A116011464968F34A1143F04A89
:101530005160019961F4004191601146C96841F020
:101540001301D16000BF0499491C04910499B0298A
:10155000F9D3EA4909884AF201521143E54A263A89
:10156000A2F8FE13114691F8241060F3071182F8D7
:1015700024101146B1F8FE134FF6FE72114041F4EB
:101580002541DC4A263AA2F8FE130021049100BF4F
:101590000499491C04910499B029F9D3D44A0399B8
:1015A000116002995160019991600099D160002108
:1015B000049100BF0499491C04910499B029F9D3FE
:1015C00005B07047CD4909884AF202521143C94A11
:1015D000263AA2F8FE131146098A60F3030111822C
:1015E000C64909884FF6FD72114041F42541C14AB0
:1015F000263AA2F8FE137047C04A12884AF20253F4
:101600001A43BC4B263BA3F8FE23BD4A904205D1AA
:101610001A46528A61F303025A8222E0B94A904282
:1016200008D1B44A263A528A61F30712B14B263BDD
:101630005A8216E0B44A904208D1AE4A263A528AFB
:1016400061F30B22AB4B263B5A820AE0AF4A904231
:1016500007D1A84A263A528A61F30F32A54B263B9E
:101660005A82A64A12884FF6FD731A4042F4254268
:10167000A04B263BA3F8FE23704701460020A04A5A
:10168000914205D19B4A263A528A02F00F0018E097
:101690009C4A914205D1974A263A528AC2F30310D6
:1016A0000FE0994A914205D1924A263A528AC2F3F2
:1016B000032006E0954A914203D18E4A263A528A87
:1016C000100B70478D4909884AF201521143894A2B
:1016D000263AA2F8FE13114691F83F1060F301017B
:1016E00082F83F101146B1F8FE134FF6FE7211401A
:1016F00041F425417F4A263AA2F8FE1370477F49FC
:1017000009884AF2015211437A4A263AA2F8FE1396
:10171000114691F83F1060F3C71182F83F1011464F
:10172000B1F8FE134FF6FE72114041F42541714AA3
:10173000263AA2F8FE137047B9B3704A12884AF2EB
:1017400001531A436B4B263BA3F8FE23012802D01A
:1017500002282BD114E00B78664A1732127863F313
:101760000302644B17331A704B78624A263A92F898
:101770003D2063F306125F4B263B83F83D2016E0C5
:101780000B785C4A1832127863F30302594B183312
:101790001A704B78574A263A92F83E2063F30612A5
:1017A000544B263B83F83E2001E00CE000BF00BF15
:1017B000524A12884FF6FE731A4042F425424D4BAE
:1017C000263BA3F8FE2370474C4A12884AF2015385
:1017D0001A43484B263BA3F8FE23012802D00228D7
:1017E00014D109E0434A1732127861F3C712414B12
:1017F000263B83F83D200AE03E4A1832127861F316
:10180000C7123C4B263B83F83E2000E000BF00BFE0
:101810003A4A12884FF6FE731A4042F42542354B7D
:10182000263BA3F8FE23704700285ED0016839B13B
:1018300001680988364A116001684988121D1160E3
:10184000416899B141680A7831491031096862F3F9
:1018500007112F4A1032116041684A782C49103123
:10186000096862F301012A4A103211608168D9B314
:101870008168CA7826491431096862F3C711244A7D
:101880001432116081680A7821491431096862F3C1
:10189000CF311F4A1432116081680A791C49143112
:1018A000096862F3C6011A4A1432116081684A79E4
:1018B00017491431096862F30101154A14321160A5
:1018C00081684A7812491431096862F30D31104A6F
:1018D0001432116081688A780D491431096862F305
:1018E00009210B4A143215E015E03EE00024F40013
:1018F000008004402640054009010F00FE430540DA
:1019000000E0014000E401400020024000240240C9
:10191000008404401160C16839B3C1680A7849493C
:10192000096862F30411474A1160C1684A78454961
:10193000096862F3C711434A1160C1688A78414956
:10194000096862F300013F4A1160C1680A793D49A4
:10195000096862F341013B4A1160C168CA7839499C
:10196000096862F38201374A1160704735490C39C2
:101970000860704733481038006880B270470146ED
:10198000002079B1012907D0022911D12D4A121D59
:101990001268C2F380000CE02A4A121D1268C2F3DA
:1019A000400006E0274A121D126802F0010000E024
:1019B00000BF00BF7047B8B101280BD002281DD16D
:1019C00020490831096821F00401091D1D4A083227
:1019D000116014E01B490831096821F00201891CDB
:1019E000184A083211600AE016490831096821F0E6
:1019F0000101491C134A0832116000E000BF00BF1A
:101A00007047114800884AF2015108430F49A1F874
:101A1000FE030E484130007800F0010030B10B4861
:101A20004130007820F0010081F84100064800882C
:101A30004FF6FE71084040F425400449A1F8FE032A
:101A40007047000018840440FE43054000400540F4
:101A500040F22310FE49086043F2102008607047EE
:101A6000FB480068012804D143F21020F8490860BF
:101A700008607047012801D0012200E00022F449EB
:101A8000091D096862F30001F14A121D11607047D7
:101A9000EF490831096860F30711ED4A0832116017
:101AA0007047EB490831096860F31041E84A083291
:101AB00011607047E6490831096860F31861E44A2B
:101AC000083211607047E2490831096860F300018B
:101AD000DF4A083211607047DD490C31096860F354
:101AE0000001DB4A0C3211607047D9490C3109689A
:101AF00060F30611D64A0C321160704720B10128FC
:101B00000BD002281BD111E0D14A1832126861F3C0
:101B10000002CF4B18331A6012E0CD4A1832126817
:101B200061F34102CA4B18331A6009E0C84A1832FF
:101B3000126861F38202C64B18331A6000E000BFDE
:101B400000BF70470146C24810300068084008B125
:101B5000012070470020FCE7BD4914310860704740
:101B60000320BB4910310968C1F3002109B10120EC
:101B70002EE0B74910310968C1F3401109B10220C4
:101B800026E0B34910310968C1F3001109B10320FF
:101B90001EE0AF4910310968C1F3C00109B104204A
:101BA00016E0AB4910310968C1F3800109B1052085
:101BB0000EE0A74910310968C1F3400109B10620C0
:101BC00006E0A3491031096801F0010101B10720C5
:101BD000704703B50098C0F312019D48203000689B
:101BE00061F313009A49203108600198C0F3120193
:101BF00097482430006861F3130095492431086048
:101C00000CBD93490C31096860F30821904A0C32ED
:101C100011607047F0B503460C46002600253F20B2
:101C2000FFF79AFF8A4808300068C0F300478848E9
:101C30000830006820F480308549083108600120B0
:101C4000FFF74AFF0120FFF750FF1C6005E0681C0A
:101C500085B2B5F5805F00D909267D48103000684F
:101C6000C0F300200028F2D01868A04200D001265E
:101C70001020FFF771FF0020FFF737FF0020FFF76C
:101C80002BFF73480830006867F310407049083133
:101C900008603046F0BDF0B503460C46002600272C
:101CA00000253F20FFF758FF694808300068C0F35F
:101CB000004767480830006820F4803064490831E4
:101CC00008600120FFF708FF0220FFF70EFF1C60ED
:101CD00005E0681C85B2B5F5805F00D909265C482F
:101CE00010300068C0F300200028F2D058481030AF
:101CF0000068C0F3C00000B101261020FFF72CFFE0
:101D00000020FFF7F2FE0020FFF7E6FE5048083003
:101D1000006867F310404E49083108603046F0BD56
:101D200070B503460C4603E014F8015B03F8015B51
:101D30001500A2F10102F7D170BD2DE9FF5F8046C9
:101D40000E469146002003900024401E01904F460D
:101D50004546B008009006F0030B3F20FFF7FCFE5D
:101D60003B4808300068C0F3004002903848083013
:101D7000006820F480303649083108600120FFF700
:101D8000ABFE0320FFF7B1FE2020FFF7E5FE0120A8
:101D9000FFF7E2FEA24615E001CF01C506E0601C98
:101DA00084B2B4F5805F01D909200390284810302F
:101DB0000068C0F300100028F1D01020FFF7CCFE1F
:101DC0000AF1010A00988245E6D3BBF1000F06D064
:101DD0005A46394601A8FFF7A3FF019801C5002024
:101DE000FFF783FE002406E0601C84B2B4F5805F38
:101DF00001D909200390164810300068C0F3002074
:101E00000028F1D01020FFF7A7FE0020FFF764FEA6
:101E10000F4908310298096860F310410C480830F6
:101E20000160039804B0BDE8F09F70B5034600243C
:101E300000263F20FFF790FE054808300068C0F3F9
:101E4000004503480830006820F48030004901E074
:101E500000040140083108600120FFF73DFE042026
:101E6000FFF743FE4948186005E0601C84B2B4F5F2
:101E7000805F00D9092646480068C0F3002000288A
:101E8000F3D01020FFF768FE0020FFF72EFE0020A1
:101E9000FFF722FE3E480838006865F310403C49D1
:101EA00008390860304670BD70B50346002400262E
:101EB0003F20FFF751FE364808380068C0F3004560
:101EC00033480838006820F4803031490839086008
:101ED0000120FFF701FE0520FFF707FE2B481860E1
:101EE00005E0601C84B2B4F5805F00D9092628485B
:101EF0000068C0F300200028F3D01020FFF72CFE6C
:101F00000020FFF7F2FD0020FFF7E6FD204808382B
:101F1000006865F310401E4908390860304670BDFE
:101F200030B50346002400250120FFF7D5FD012030
:101F3000FFF7DBFD0020186005E0601C84B2B4F5FB
:101F4000805F00D9092512480068C0F300200028EE
:101F5000F3D01020FFF700FE0020FFF7C6FD0020A1
:101F6000FFF7BAFD284630BD0EB509494031096872
:101F700000910749443109680191054948310968D0
:101F800002919DE80E0080E80E000EBD78563412D6
:101F9000100401404FF42540D349088070474AF2AD
:101FA0000150D14908807047F0B505460F461346E9
:101FB0000024FFF7F4FF00BF58E00120A0403840A4
:101FC000002851D0C848001D00EB851000EB8402AA
:101FD000C548801D00EB851000EB840659781088F9
:101FE00061F38E3010809978108861F30C30108086
:101FF000D978108861F3492010801979108861F32D
:10200000861010809979108861F3820010805979C8
:10201000108861F305101080187820B101280BD0CA
:1020200002281AD112E0108820F400401080108895
:1020300020F00200108011E0108820F40040108091
:10204000108820F00200801C108007E0108820F427
:10205000004000F50040108000E000BF00BFD979CB
:10206000308861F308203080601CC4B2102CA4D3E7
:10207000FFF790FF0020F0BD10B5FFF790FF0022A2
:102080002CE00020994C04EB0211A1F8040804EBA9
:102090000211A1F8060804EB0211A1F8080804EBEC
:1020A0000211A1F80A08002313E0052A02D1032B2C
:1020B00000D110E000208C49091D01EB821121F8AC
:1020C00023008949891D01EB821121F82300581C46
:1020D000C3B2102BE9D300BF501CC2B2052AD0DD19
:1020E00000208149091F0880891C08801F20891F42
:1020F0000880FFF74FFF002010BD00B502460B46D9
:10210000FFF74DFF012B09D177480838008802F00E
:102110001F01084374490839088008E072480838EC
:10212000008802F01F0188436F4908390880FFF7D3
:1021300031FF002000BD00B50246FFF730FF1178E7
:102140006948001F008861F303006749091F088080
:1021500051786548001F008861F38F306249091F7C
:102160000880FFF717FF002000BD014660481023DC
:1021700003FB0102108880B2704710B502465C482C
:10218000102404FB02031868084008B1012010BDA8
:102190000020FCE710B502465548001D102404FB42
:1021A0000203188808431880002010BD10B50246AD
:1021B0004F48001D102404FB020318888843188030
:1021C000002010BD30B504460B464948801D10253F
:1021D00005FB0401012A03D108881843088002E0A6
:1021E000088898430880002030BD10B5024640485A
:1021F0000830102404FB02031888084318800020CC
:1022000010BD10B502463A480A30102404FB020300
:10221000188808431880002010BD10B502463448C5
:102220000C30102404FB0203188808431880002097
:1022300010BD00B502460B46FFF7B1FE012B09D1D8
:102240002948801E00880121914008432649891EA3
:1022500008800AE02448801E01880120904000F098
:102260001F0081432048801E0180FFF793FE00205D
:1022700000BDF0B504460D4616461F460023FFF785
:102280008EFE00231AE0012098402840A0B1164895
:10229000801D402101FB0400042101FB0302108882
:1022A00066F305001080012F01D1012000E000201D
:1022B000118860F308211180581CC3B2102BE2D39F
:1022C000FFF768FE0020F0BD00B50246FFF767FE8D
:1022D0000548001F008862F303000349091F0880B6
:1022E000FFF758FE002000BDFC3B054000300540D4
:1022F0000038054070B5014600240B88DD1703EB5C
:10230000D5656D1105EB4505202606EB4505B1F9B0
:102310000260B5420DDC0888C51700EBD5656D116C
:1023200005EB4505252606EB4505B1F90260B542EA
:1023300005DAB1F90250202D01DB042418E04888A9
:10234000F84B042515FB00321068C0F3080040F27A
:10235000FF1398420BD10B88106863F308001060DC
:10236000B1F90230F04D486845F8230000E0072439
:10237000204670BD10B501460020002901DB7F29F1
:1023800001DD04200DE0E74B042404FB0132136857
:102390006FF3080303F2FF1313600023E24C44F8C9
:1023A000213010BD10B501464809E04B042404FB60
:1023B000003201F01F040123A3401068184310608D
:1023C000002010BD10B501464809D84B042404FB79
:1023D000003201F01F040123A340106898431060ED
:1023E000002010BD0146002001F07D420AB104200A
:1023F00006E0CC4A5C3A126D0A43CA4B5C3B1A6554
:1024000070470146002001F07D420AB1042006E039
:10241000C44A5C3A126D8A43C24B5C3B1A657047F2
:102420000146C248443000680843BE4A5C3AC2F8DC
:10243000A002002070470146BC4844300068884331
:10244000B84A5C3AC2F8A002002070470146B7487B
:10245000483000680843B34A5C3AC2F8A40200203E
:1024600070470146B148483000688843AD4A5C3A3D
:10247000C2F8A4020020704710B5AFF3008010BD71
:1024800010B5AFF3008010BD10B5AFF3008010BDE4
:1024900010B5AFF3008010BD10B5AFF3008010BDD4
:1024A00010B5AFF3008010BD10B5AFF3008010BDC4
:1024B00010B5AFF3008010BD10B5AFF3008010BDB4
:1024C00010B59948006810B197490868804710BD59
:1024D00010B59548406810B193494868804710BDD1
:1024E00010B59148806810B18F498868804710BD49
:1024F00010B58D48C06810B18B49C868804710BDC1
:1025000010B58948006910B187490869804710BD36
:1025100010B58548406910B183494869804710BDAE
:1025200010B58148806910B17F498869804710BD26
:1025300010B57D48C06910B17B49C869804710BD9E
:1025400010B57948006A10B17749086A804710BD14
:1025500010B57548406A10B17349486A804710BD8C
:1025600010B57148806A10B16F49886A804710BD04
:1025700010B56D48C06A10B16B49C86A804710BD7C
:1025800010B56948006B10B16749086B804710BDF2
:1025900010B56548406B10B16349486B804710BD6A
:1025A00010B56148806B10B15F49886B804710BDE2
:1025B00010B55D48C06B10B15B49C86B804710BD5A
:1025C00010B55948006C10B15749086C804710BDD0
:1025D00010B55548406C10B15349486C804710BD48
:1025E00010B55148806C10B14F49886C804710BDC0
:1025F00010B54D48C06C10B14B49C86C804710BD38
:1026000010B54948006D10B14749086D804710BDAD
:1026100010B54548406D10B14349486D804710BD25
:1026200010B54148806D10B13F49886D804710BD9D
:1026300010B53D48C06D10B13B49C86D804710BD15
:1026400010B53948006E10B13749086E804710BD8B
:1026500010B53548406E10B13349486E804710BD03
:1026600010B53148806E10B12F49886E804710BD7B
:1026700010B52D48C06E10B12B49C86E804710BDF3
:1026800010B52948006F10B12749086F804710BD69
:1026900010B52548406F10B12349486F804710BDE1
:1026A00010B52148806F10B11F49886F804710BD59
:1026B00010B51D48C06F10B11B49C86F804710BDD1
:1026C00010B51948D0F8800018B11749D1F880002A
:1026D000804710BD10B51448D0F8840018B11249D5
:1026E000D1F88400804710BD10B50F48D0F888009D
:1026F00018B10D49D1F88800804710BD10B50A48BF
:10270000D0F88C0018B10849D1F88C00804710BD72
:1027100010B50548D0F8900018B10349D1F89000E1
:10272000804710BD5C1005401080FF1F5C12054003
:1027300010B5F948D0F8940018B1F749D1F89400D1
:10274000804710BD10B5F448D0F8980018B1F24990
:10275000D1F89800804710BD10B5EF48D0F89C0024
:1027600018B1ED49D1F89C00804710BD10B5EA487A
:10277000D0F8A00018B1E849D1F8A000804710BDFA
:1027800010B5E548D0F8A40018B1E349D1F8A40089
:10279000804710BD10B5E048D0F8A80018B1DE4958
:1027A000D1F8A800804710BD10B5DB48D0F8AC00C8
:1027B00018B1D949D1F8AC00804710BD10B5D64842
:1027C000D0F8B00018B1D449D1F8B000804710BD9E
:1027D00010B5D148D0F8B40018B1CF49D1F8B40041
:1027E000804710BD10B5CC48D0F8B80018B1CA4920
:1027F000D1F8B800804710BD10B5C748D0F8BC006C
:1028000018B1C549D1F8BC00804710BD10B5C24809
:10281000D0F8C00018B1C049D1F8C000804710BD41
:1028200010B5BD48D0F8C40018B1BB49D1F8C400F8
:10283000804710BD10B5B848D0F8C80018B1B649E7
:10284000D1F8C800804710BD10B5B348D0F8CC000F
:1028500018B1B149D1F8CC00804710BD10B5AE48D1
:10286000D0F8D00018B1AC49D1F8D000804710BDE5
:1028700010B5A948D0F8D40018B1A749D1F8D400B0
:10288000804710BD10B5A448D0F8D80018B1A249AF
:10289000D1F8D800804710BD10B59F48D0F8DC00B3
:1028A00018B19D49D1F8DC00804710BD10B59A4899
:1028B000D0F8E00018B19849D1F8E000804710BD89
:1028C00010B59548D0F8E40018B19349D1F8E40068
:1028D000804710BD10B59048D0F8E80018B18E4977
:1028E000D1F8E800804710BD10B58B48D0F8EC0057
:1028F00018B18949D1F8EC00804710BD10B5864861
:10290000D0F8F00018B18449D1F8F000804710BD2C
:1029100010B58148D0F8F40018B17F49D1F8F4001F
:10292000804710BD10B57C48D0F8F80018B17A493E
:10293000D1F8F800804710BD10B57748D0F8FC00FA
:1029400018B17549D1F8FC00804710BD10B5724828
:10295000D0F8000118B17049D1F80001804710BDCE
:1029600010B56D48D0F8040118B16B49D1F80401D5
:10297000804710BD10B56848D0F8080118B1664905
:10298000D1F80801804710BD10B56348D0F80C019C
:1029900018B16149D1F80C01804710BD10B55E48EF
:1029A000D0F8100118B15C49D1F81001804710BD72
:1029B00010B55948D0F8140118B15749D1F814018D
:1029C000804710BD10B55448D0F8180118B15249CD
:1029D000D1F81801804710BD10B54F48D0F81C0140
:1029E00018B14D49D1F81C01804710BD10B54A48B7
:1029F000D0F8200118B14849D1F82001804710BD16
:102A000010B54548D0F8240118B14349D1F8240144
:102A1000804710BD10B54048D0F8280118B13E4994
:102A2000D1F82801804710BD10B53B48D0F82C01E3
:102A300018B13949D1F82C01804710BD10B536487E
:102A4000D0F8300118B13449D1F83001804710BDB9
:102A500010B53148D0F8340118B12F49D1F83401FC
:102A6000804710BD10B52C48D0F8380118B12A495C
:102A7000D1F83801804710BD10B52748D0F83C0187
:102A800018B12549D1F83C01804710BD10B5224846
:102A9000D0F8400118B12049D1F84001804710BD5D
:102AA00010B51D48D0F8440118B11B49D1F84401B4
:102AB000804710BD10B51848D0F8480118B1164924
:102AC000D1F84801804710BD10B51348D0F84C012B
:102AD00018B11149D1F84C01804710BD10B50E480E
:102AE000D0F8500118B10C49D1F85001804710BD01
:102AF00010B50948D0F8540118B10749D1F854016C
:102B0000804710BD10B50448D0F8580118B10249EB
:102B1000D1F85801804710BD1080FF1F10B5FE4846
:102B2000D0F85C0118B1FC49D1F85C01804710BDB8
:102B300010B5F948D0F8600118B1F749D1F8600133
:102B4000804710BD10B5F448D0F8640118B1F249BF
:102B5000D1F86401804710BD10B5EF48D0F8680186
:102B600018B1ED49D1F86801804710BD10B5EA48A9
:102B7000D0F86C0118B1E849D1F86C01804710BD5C
:102B800010B5E548D0F8700118B1E349D1F87001EB
:102B9000804710BD10B5E048D0F8740118B1DE4987
:102BA000D1F87401804710BD10B5DB48D0F878012A
:102BB00018B1D949D1F87801804710BD10B5D64871
:102BC000D0F87C0118B1D449D1F87C01804710BD00
:102BD00010B5D148D0F8800118B1CF49D1F88001A3
:102BE000804710BD10B5CC48D0F8840118B1CA494F
:102BF000D1F88401804710BD10B5C748D0F88801CE
:102C000018B1C549D1F88801804710BD10B5C24838
:102C1000D0F88C0118B1C049D1F88C01804710BDA3
:102C200010B5BD48D0F8900118B1BB49D1F890015A
:102C3000804710BD10B5B848D0F8940118B1B64916
:102C4000D1F89401804710BD10B5B348D0F8980171
:102C500018B1B149D1F89801804710BD10B5AE4800
:102C6000D0F89C0118B1AC49D1F89C01804710BD47
:102C700010B5A948D0F8A00118B1A749D1F8A00112
:102C8000804710BD10B5A448D0F8A40118B1A249DE
:102C9000D1F8A401804710BD10B59F48D0F8A80115
:102CA00018B19D49D1F8A801804710BD10B59A48C8
:102CB000D0F8AC0118B19849D1F8AC01804710BDEB
:102CC00010B59548D0F8B00118B19349D1F8B001CA
:102CD000804710BD10B59048D0F8B40118B18E49A6
:102CE000D1F8B401804710BD10B58B48D0F8B801B9
:102CF00018B18949D1F8B801804710BD10B5864890
:102D0000D0F8BC0118B18449D1F8BC01804710BD8E
:102D100010B58148D0F8C00118B17F49D1F8C00181
:102D2000804710BD10B57C48D0F8C40118B17A496D
:102D3000D1F8C401804710BD10B57748D0F8C8015C
:102D400018B17549D1F8C801804710BD10B5724857
:102D5000D0F8CC0118B17049D1F8CC01804710BD32
:102D600010B56D48D0F8D00118B16B49D1F8D00139
:102D7000804710BD10B56848D0F8D40118B1664935
:102D8000D1F8D401804710BD10B56348D0F8D80100
:102D900018B16149D1F8D801804710BD10B55E481F
:102DA000D0F8DC0118B15C49D1F8DC01804710BDD6
:102DB00010B55948D0F8E00118B15749D1F8E001F1
:102DC000804710BD10B55448D0F8E40118B15249FD
:102DD000D1F8E401804710BD10B54F48D0F8E801A4
:102DE00018B14D49D1F8E801804710BD10B54A48E7
:102DF000D0F8EC0118B14849D1F8EC01804710BD7A
:102E000010B54548D0F8F00118B14349D1F8F001A8
:102E1000804710BD10B54048D0F8F40118B13E49C4
:102E2000D1F8F401804710BD10B53B48D0F8F80147
:102E300018B13949D1F8F801804710BD10B53648AE
:102E4000D0F8FC0118B13449D1F8FC01804710BD1D
:102E500010B53248046832480068012804D104F0F3
:102E6000010008B1AFF300802D48001D0068012863
:102E700004D104F0020008B1AFF300802848083004
:102E80000068012804D104F0040008B1AFF3008009
:102E900023480C300068012804D104F0080008B170
:102EA000AFF300801E4810300068012804D104F000
:102EB000100008B1AFF300801948143000680128F1
:102EC00004D104F0200008B1AFF30080144818309A
:102ED0000068012804D104F0400008B1AFF300807D
:102EE0000F481C300068012804D104F0800008B1AC
:102EF000AFF300800A4820300068012804D104F4B0
:102F0000807008B1AFF300800548243000680128C4
:102F10000BD104F4007005E01080FF1F5C12054027
:102F2000800AA24208B1AFF30080FE480068012881
:102F300004D104F4806008B1AFF30080F948001DAB
:102F40000068012804D104F4006008B1AFF30080E8
:102F5000F44808300068012804D104F4805008B116
:102F6000AFF30080EF480C300068012804D104F46E
:102F7000005008B1AFF30080EA4810300068012823
:102F800004D104F4804008B1AFF30080E548143068
:102F90000068012804D104F4004008B1AFF30080B8
:102FA00010BD70B5E048046800260025DF480068C1
:102FB00001282BD1DE48006840B9DE4800680128AE
:102FC00004D104F0010008B1AFF30080D8484030CC
:102FD000006848B9D74840300068012804D104F49B
:102FE000807008B1AFF30080D348406800F001164C
:102FF000D148C1684FF0011020EA010506EA05003A
:1030000020B104F4803008B1AFF30080CB480068F1
:1030100001282DD1C648001D006848B9C548001DCB
:103020000068012804D104F0020008B1AFF3008069
:10303000BF484430006848B9BE48443000680128A1
:1030400004D104F4007008B1AFF30080BA484068BE
:1030500000F00216B848C1684FF0021020EA0105DE
:1030600006EA050020B104F4803008B1AFF3008017
:10307000B348006801282DD1AD480830006848B930
:10308000AC4808300068012804D104F0040008B1FD
:10309000AFF30080A6484830006848B9A5484830DA
:1030A0000068012804D104F4806008B1AFF3008007
:1030B000A148406800F004169F48C1684FF0041012
:1030C00020EA010506EA050020B104F4803008B1C9
:1030D000AFF300809B48006801282DD194480C3044
:1030E000006848B993480C300068012804D104F006
:1030F000080008B1AFF300808D484C30006848B933
:103100008C484C300068012804D104F4006008B1F8
:10311000AFF300808848406800F008168648C16810
:103120004FF0081020EA010506EA050020B104F47A
:10313000803008B1AFF300808348006801282CD1AB
:103140008248006840B982480068012804D104F030
:10315000100008B1AFF300807C484030006848B9E7
:103160007B4840300068012804D104F4805008B145
:10317000AFF300807748006800F00116754808300A
:1031800001684FF0011020EA010506EA050020B1B0
:1031900004F4003008B1AFF300806F4800680128E4
:1031A0002ED16A48001D006848B96948001D0068B2
:1031B000012804D104F0200008B1AFF30080634877
:1031C0004430006848B95B4844300068012804D1A5
:1031D00004F4005008B1AFF300805E48006800F0CE
:1031E00002165C48083001684FF0021020EA010521
:1031F00006EA050020B104F4003008B1AFF3008006
:103200005648006801282ED150480830006848B957
:103210004F4808300068012804D104F0400008B18C
:10322000AFF3008049484830006848B94148483009
:103230000068012804D104F4804008B1AFF3008095
:103240004448006800F004164248083001684FF016
:10325000041020EA010506EA050020B104F400305C
:1032600008B1AFF300803E48006801282ED13748EE
:103270000C30006848B936480C300068012804D189
:1032800004F0800008B1AFF3008030484C30006893
:1032900048B928484C300068012804D104F40040A3
:1032A00008B1AFF300802B48006800F008162948E9
:1032B000083001684FF0081020EA010506EA050011
:1032C00020B104F4003008B1AFF300802548006855
:1032D000012809D12448006800F00F0020B104F44F
:1032E000802008B1AFF300801E4808300068012834
:1032F00009D11C48EC380068012804D104F40020EE
:1033000008B1AFF300801748001D006801282FD1D5
:103310001448F038006801282AD104F4801000B164
:1033200024E025E0A80AA24260120540B00BA642A4
:103330000002A6420001A64200300540B013A6429A
:10334000B01BA642B023A642B08BA6420082A64282
:103350000081A64204340540B093A642B09BA64229
:10336000B0A3A6420083204210040140AFF30080C6
:103370004FF01C40C068C0F3C01020B104F48000BE
:1033800008B1AFF30080F8488669456806EA050091
:1033900000F07F0020B104F4000008B1AFF300801A
:1033A000F2480668F1481438056806EA050000F09E
:1033B0007F0020B104F0807008B1AFF30080EC48CA
:1033C0000668EB481438056806EA050000F07F003F
:1033D00020B104F0007008B1AFF30080E548066842
:1033E000E4481438056806EA050000F07F0020B1C3
:1033F00004F0806008B1AFF3008070BD10B5DE4806
:103400000468DE48D0F80802012808D1DC480068CA
:10341000012804D104F0010008B1AFF30080D848BE
:1034200038380068012809D1D548403000680128A3
:1034300004D104F0020008B1AFF30080D148006865
:10344000012809D1CF4878300068012804D104F060
:10345000040008B1AFF30080CA484030006801287A
:1034600009D1C848B8300068012804D104F0080028
:1034700008B1AFF30080C4480068012809D1C248F0
:1034800020300068012804D104F4001008B1AFF323
:103490000080BE48006B012804D104F4800008B10C
:1034A000AFF30080BA48006800F4403020B104F463
:1034B000000008B1AFF3008010BD70B5AE48001D2C
:1034C000046800260025B3480068012808D1B248E6
:1034D0000068012804D104F0010008B1AFF30080B6
:1034E000AC48001D0068012809D1AB48001D0068E8
:1034F000012804D104F0020008B1AFF30080A54810
:1035000008300068012809D1A34808300068012864
:1035100004D104F0040008B1AFF300809D480C30E2
:103520000068012809D19C480C300068012804D1AA
:1035300004F0080008B1AFF300809648103000682E
:10354000012809D1944810300068012804D104F002
:10355000100008B1AFF300808E48143000680128D5
:1035600009D18D4814300068012804D104F02000EE
:1035700008B1AFF30080874818300068012809D1EE
:10358000854818300068012804D104F0400008B1D3
:10359000AFF300807F481C300068012809D17E48C5
:1035A0001C300068012804D104F0800008B1AFF39A
:1035B0000080784820300068012809D17648203002
:1035C0000068012804D104F4807008B1AFF30080D2
:1035D0007248406D00F44030C6097048006F00F436
:1035E000C06506EA050020B104F4006008B1AFF33D
:1035F00000806A48406D00F44020C6096748006FAB
:1036000000F4C05506EA050020B104F4805008B16A
:10361000AFF3008062480068012808D16148006863
:10362000012804D104F4803008B1AFF300805C4875
:10363000001D0068012809D15A48001D00680128B2
:1036400004D104F4003008B1AFF3008054480830CE
:103650000068012809D1534808300068012804D1C6
:1036600004F4802008B1AFF300804D480C300068AE
:10367000012809D14B480C300068012804D104F41A
:10368000002008B1AFF300804548103000680128E1
:1036900009D1444810300068012804D104F4801096
:1036A00008B1AFF300803E4814300068012809D10A
:1036B0003C4814300068012804D104F4001008B11B
:1036C000AFF30080364818300068012809D135482A
:1036D00018300068012804D104F4800008B1AFF369
:1036E00000802F481C300068012809D12D481C306B
:1036F0000068012804D104F4000008B1AFF3008091
:10370000274820300068012809D126482030006869
:10371000012804D104F0807008B1AFF30080224882
:10372000006800F44030C6091F481C30006800F4EF
:10373000C06506EA050020B104F0006008B1AFF3EF
:1037400000801948006800F44020C60916481C3063
:10375000006800F4C05506EA050020B104F080506E
:1037600008B1AFF3008070BD00200540182405406B
:1037700018280540182C05406412054000004842F6
:1037800080024842088248420008A84200809842CD
:1037900004940440800A3042000E30420080014010
:1037A000808A3042008E30425484014070B5FE4819
:1037B000046800260025FD480068012808D1FC485F
:1037C0000068012804D104F0010008B1AFF30080C3
:1037D000F648001D0068012809D1F548001D006861
:1037E000012804D104F0020008B1AFF30080EF48D3
:1037F00008300068012809D1ED4808300068012828
:1038000004D104F0040008B1AFF30080E7480C30A5
:103810000068012809D1E6480C300068012804D16D
:1038200004F0080008B1AFF30080E04810300068F1
:10383000012809D1DE4810300068012804D104F0C5
:10384000100008B1AFF30080D84814300068012898
:1038500009D1D74814300068012804D104F02000B1
:1038600008B1AFF30080D14818300068012809D1B1
:10387000CF4818300068012804D104F0400008B196
:10388000AFF30080C9481C300068012809D1C8483E
:103890001C300068012804D104F0800008B1AFF3A7
:1038A0000080C24820300068012809D1C04820307B
:1038B0000068012804D104F4807008B1AFF30080DF
:1038C000BC48006800F44030C609BA481C300068A3
:1038D00000F4C06506EA050020B104F4006008B1F8
:1038E000AFF30080B348006800F44020C609B14837
:1038F0001C30006800F4C05506EA050020B104F44D
:10390000805008B1AFF3008070BD70B50024002670
:10391000A54810300568A848D0F8804004F48050CD
:1039200038B104F4804020B105F0010008B1AFF3D4
:10393000008004F4005038B104F4004020B105F0D8
:10394000020008B1AFF300809B48903004689A48A9
:10395000D0F89C6004EA0600C0B220B105F0040073
:1039600008B1AFF300809548046804F4805038B182
:1039700004F4804020B105F0080008B1AFF30080E6
:1039800004F4005038B104F4004020B105F01000F8
:1039900008B1AFF3008089481030046887481C30B4
:1039A000066804EA0600C0B220B105F0200008B1A4
:1039B000AFF300808248046804F4805038B104F406
:1039C000804020B105F0400008B1AFF3008004F45E
:1039D000005038B104F4004020B105F0800008B177
:1039E000AFF3008076481030046875481C300668D4
:1039F00004EA0600C0B220B105F4807008B1AFF34C
:103A000000807048046804F4805038B104F48040A9
:103A100020B105F4007008B1AFF3008004F4005049
:103A200038B104F4004020B105F4806008B1AFF370
:103A3000008064481030046862481C30066804EA5C
:103A40000600C0B220B105F4006008B1AFF30080F9
:103A50005D48046804F4805038B104F4804020B11B
:103A600005F4805008B1AFF3008004F4005038B181
:103A700004F4004020B105F4005008B1AFF3008019
:103A800051481030046850488038D0F89C6004EAEF
:103A90000600C0B220B105F4804008B1AFF3008049
:103AA0004A48046804F4805038B104F4804020B1DE
:103AB00005F4803008B1AFF3008004F4005038B151
:103AC00004F4004020B105F4003008B1AFF30080E9
:103AD0003E48103004683D481C30066804EA060081
:103AE000C0B220B105F4802008B1AFF3008038489F
:103AF0000068012810D137488069374900EA01047D
:103B00003448406900EA010604EA060020B105F4E1
:103B1000002008B1AFF3008030480468C66806F0A2
:103B2000200038B104F00B0020B105F4800008B18A
:103B3000AFF3008006EA040000F0200020B105F495
:103B4000000008B1AFF3008006EA040000F0800036
:103B500020B105F0807008B1AFF3008006EA0400E0
:103B600000F0400020B105F0007008B1AFF3008014
:103B700006F0020038B104F4807020B105F08060D6
:103B800008B1AFF300801648046815480C30066889
:103B900006F0200038B104F00B0020B105F0006001
:103BA00008B1AFF300801DE06C120540800A31427D
:103BB000000E3142548801400050014080540140C1
:103BC00080580140805C0140806001408064014079
:103BD0000001804300000C40FBFC7CF700D001405A
:103BE00000D4014006EA040000F0200020B105F0F6
:103BF000805008B1AFF3008006EA040000F08000B6
:103C000020B105F0005008B1AFF3008006EA0400CF
:103C100000F0400020B105F0804008B1AFF3008013
:103C200006F0020038B104F4807020B105F00040C5
:103C300008B1AFF3008070BD70B500240026FE48C7
:103C40000568FE480468C66806F0200038B104F034
:103C50000B0020B105F0010008B1AFF3008006EAC7
:103C6000040000F0200020B105F0020008B1AFF31D
:103C7000008006EA040000F0800020B105F0040096
:103C800008B1AFF3008006EA040000F0400020B164
:103C900005F0080008B1AFF3008006F0020038B16B
:103CA00004F4807020B105F0100008B1AFF300807B
:103CB000E3480468E2480C30066806F0200038B19A
:103CC00004F00B0020B105F0200008B1AFF3008034
:103CD00006EA040000F0200020B105F0400008B121
:103CE000AFF3008006EA040000F0800020B105F088
:103CF000800008B1AFF3008006EA040000F0400045
:103D000020B105F4807008B1AFF3008006F0020026
:103D100038B104F4807020B105F4007008B1AFF33D
:103D20000080C8484468466904F4806038B106F0F1
:103D3000800020B105F4006008B1AFF3008004F406
:103D4000007038B106F0200020B105F4805008B1B1
:103D5000AFF3008004F4006038B106F0010020B930
:103D600005F4005008B1AFF3008004F4807038B15E
:103D700006F01D0020B105F4804008B1AFF30080CB
:103D8000B1480468B0481030066804F4806038B167
:103D900006F0800020B105F4803008B1AFF3008058
:103DA00004F4007038B106F0200020B105F40030B2
:103DB00008B1AFF3008004F4006038B106F00100F0
:103DC00020B905F4802008B1AFF3008004F48070BE
:103DD00038B106F01D0020B105F4002008B1AFF3A2
:103DE00000809A484468466904F4806038B106F05F
:103DF000800020B105F4001008B1AFF3008004F496
:103E0000007038B106F0200020B105F4800008B140
:103E1000AFF3008004F4006038B106F0010020B96F
:103E200005F4000008B1AFF3008004F4807038B1ED
:103E300006F01D0020B105F0807008B1AFF30080DE
:103E40008348046882481030066804F4806038B102
:103E500006F0800020B105F0806008B1AFF300806B
:103E600004F4007038B106F0200020B105F00060C5
:103E700008B1AFF3008004F4006038B106F001002F
:103E800020B905F0805008B1AFF3008004F48070D1
:103E900038B106F01D0020B105F0005008B1AFF3B5
:103EA000008070BD70B500246348001D0568694836
:103EB000048B05F0010038B104F0100020B104F0CB
:103EC000400008B1AFF3008005F0020038B104F003
:103ED000200020B104F0800008B1AFF300805D48FD
:103EE000848B05F0040038B104F0100020B104F018
:103EF000400008B1AFF3008005F0080038B104F0CD
:103F0000200020B104F0800008B1AFF300805148D8
:103F1000048C05F0100038B104F0100020B104F05A
:103F2000400008B1AFF3008005F0200038B104F084
:103F3000200020B104F0800008B1AFF300804548B4
:103F40004830048805F0400038B104F4807020B196
:103F500004F4007008B1AFF3008005F0800038B1C0
:103F600004F4005020B104F4804008B1AFF30080A5
:103F70003848A430048805F4807040B104F0010092
:103F8000C04320B104F0100008B1AFF3008005F485
:103F9000007040B104F00200C04320B104F480700E
:103FA00008B1AFF3008005F4806040B104F0040074
:103FB000C04320B104F4805008B1AFF3008026481C
:103FC000048805F4803038B104F0100020B104F00A
:103FD000400008B1AFF3008005F4003038B104F0C0
:103FE000200020B104F0800008B1AFF300801A482F
:103FF000001D048805F4802038B104F0100020B1C1
:1040000004F0400008B1AFF3008005F4002038B19F
:1040100004F0200020B104F0800008B1AFF300806C
:104020000D480830048805F48010D0B104F0100069
:10403000B8B104F0400011E08012054000100240C9
:104040000014024000C0014004C4014000000240CE
:1040500004040240007001401848024008B1AFF368
:10406000008005F4001038B104F0200020B104F005
:10407000800008B1AFF30080FE48048805F480009A
:1040800038B104F4807020B104F4007008B1AFF3CB
:10409000008005F4000038B104F4005020B104F4AD
:1040A000804008B1AFF30080F2485C30048805F02E
:1040B000807040B104F00100C04320B104F0100052
:1040C00008B1AFF3008005F0007040B104F00200C9
:1040D000C04320B104F4807008B1AFF3008005F054
:1040E000806040B104F00400C04320B104F480506B
:1040F00008B1AFF3008070BD70B50024DE480568DC
:10410000DE48048805F0010038B104F0100020B149
:1041100004F0400008B1AFF3008005F0020038B1B0
:1041200004F0200020B104F0800008B1AFF300805B
:10413000D248001D048805F0040038B104F01000D6
:1041400020B104F0400008B1AFF3008005F0080092
:1041500038B104F0200020B104F0800008B1AFF3C2
:104160000080C6480830048805F0100038B104F01B
:10417000100020B104F0400008B1AFF3008005F05A
:10418000200038B104F0200020B104F0800008B114
:10419000AFF30080B9483030048805F0400038B1F2
:1041A00004F4807020B104F4007008B1AFF3008013
:1041B00005F0800038B104F4005020B104F48040D0
:1041C00008B1AFF30080AD488C30048805F48070EE
:1041D00040B104F00100C04320B104F0100008B168
:1041E000AFF3008005F4007040B104F00200C0435A
:1041F00020B104F4807008B1AFF3008005F4806052
:1042000040B104F00400C04320B104F4805008B170
:10421000AFF3008070BD70B59748001D046800269C
:1042200000259748006800F00F06954808300068A0
:1042300000F00F0506EA050020B104F0400008B1C7
:10424000AFF300808E482030006800F00F068C48E5
:104250002830006800F00F0506EA050020B104F0E0
:10426000800008B1AFF3008085484030006800F05E
:104270000F0683484830006800F00F0506EA050085
:1042800020B104F4807008B1AFF300807C48603046
:10429000006800F00F067A486830006800F00F05EB
:1042A00006EA050020B104F4007008B1AFF3008005
:1042B00074484068012809D172488030006801289C
:1042C00004D104F4803008B1AFF300806D48C068B9
:1042D000012809D16B4884300068012804D104F416
:1042E000003008B1AFF3008066480069012809D1A9
:1042F0006548806800F0030020B104F4802008B114
:10430000AFF3008061484068012809D15F488030E0
:104310000068012804D104F4002008B1AFF3008044
:104320005A48C068012809D15848843000680128DB
:1043300004D104F4801008B1AFF300805348006941
:10434000012809D15248006800F0030020B104F4AC
:10435000001008B1AFF300804E484068012809D131
:104360004C4880300068012804D104F4800008B172
:10437000AFF300804748C068012809D14548843020
:104380000068012804D104F4000008B1AFF30080F4
:1043900040480069012809D13F48806800F00300C7
:1043A00020B104F0807008B1AFF300803B48406852
:1043B000012809D1394880300068012804D104F06F
:1043C000007008B1AFF300803448C068012809D1FB
:1043D000324884300068012804D104F0806008B1BC
:1043E000AFF300802D480069012809D12C480068EE
:1043F00000F0030020B104F0006008B1AFF30080CA
:1044000070BD70B51C48083004680026002525489A
:10441000D0F89800012808D123480068012804D169
:1044200004F0100008B1AFF300801E488C30006823
:10443000012809D11C480C380068012804D104F077
:10444000200008B1AFF3008016489C3000680128B6
:1044500009D11548001D0068012804D104F040006E
:1044600008B1AFF3008011484068114900EA010625
:104470000E481FE04848024088120540184C024090
:104480000C7C014000003C4200E0014000803C42C6
:1044900008E4014000004442002002400080444201
:1044A0000824024000009C4298039C4200E0044023
:1044B0001752F000C06900EA010506EA050020B1C4
:1044C00004F0800008B1AFF30080E34800680128E1
:1044D00008D1E2480068012804D104F4807008B1D2
:1044E000AFF30080DC480C380068012809D1DB48B4
:1044F0000C380068012804D104F4007008B1AFF34F
:104500000080D548001D0068012809D1D348001D4E
:104510000068012804D104F4806008B1AFF3008082
:10452000CF480068CF4900EA0106CD48183000683E
:1045300000EA010506EA050020B104F4006008B1B4
:10454000AFF30080C8480068012808D1C748006858
:10455000012804D104F4805008B1AFF30080C248B0
:104560000C380068012809D1C0480C3800680128BF
:1045700004D104F4005008B1AFF30080BA48001D24
:104580000068012809D1B948001D0068012804D13C
:1045900004F4804008B1AFF30080B5480068B14929
:1045A00000EA0106B2481830006800EA010506EA90
:1045B000050020B104F4004008B1AFF30080AD481D
:1045C0000068012808D1AC480068012804D104F42F
:1045D000003008B1AFF30080A64810300068012811
:1045E00009D1A54810300068012804D104F48020C6
:1045F00008B1AFF30080A1480068012809D19F48A5
:1046000080300068012804D104F4801008B1AFF3B1
:1046100000809A48001D0068012809D1974884301D
:104620000068012804D104F4001008B1AFF3008041
:10463000924808300068012809D190488830006805
:10464000012804D104F4800008B1AFF300808C4845
:10465000406800F4403020B104F4000008B1AFF32A
:10466000008070BD70B587480468002586480068E2
:10467000012809D1844820380068012804D104F0B9
:10468000010008B1AFF300807F48001D00680128D9
:1046900009D17D481C380068012804D104F00200CB
:1046A00008B1AFF30080794805887948006801288F
:1046B00009D178480068012800D025B104F0040031
:1046C00008B1AFF3008072480068012809D1714831
:1046D0000068012800D025B104F0080008B1AFF34C
:1046E00000806D480068012809D16B4820380068B7
:1046F000012804D104F0100008B1AFF3008066482F
:10470000001D0068012809D163481C380068012891
:1047100004D104F0200008B1AFF300805F480068C6
:10472000012809D15E480088C0F3080020B104F0D8
:10473000400008B1AFF3008058480068012809D153
:1047400057480088C0F3080020B104F0800008B189
:10475000AFF3008070BD2DE9F05F0026B346002462
:1047600000250027A046A146A2464E480068012821
:104770001AD14D4807884C480830B0F80080801F97
:10478000B0F8009048480A30B0F800A007EA0800E6
:1047900040F2F711084028B909EA0A0040F27F11F7
:1047A000084008B1AFF300803E480C300068012893
:1047B00015D13E48078EB0F83880B0F83290B0F886
:1047C0003AA007EA080040F2F711084028B909EAC0
:1047D0000A0040F27F11084008B1AFF30080314871
:1047E00010300068012834D131480678401E90F816
:1047F00000B0801C04782E481A30057805F020009F
:1048000028BB06F0010010BB06EA0B0000F0FE001A
:10481000E8B904F0010010B104F00200B8B904F0E6
:10482000040010B104F0080088B904F0100010B1C1
:1048300004F0200058B905F0080010B105F0100090
:1048400028B905F0400020B105F0800008B1AFF3B1
:104850000080BDE8F09F000098809C4298839C42B5
:1048600004E404401752F00098009D4298039D42D2
:1048700004E804406082A842241CA84200839042BD
:104880000090044094120540E0088042B0000440CB
:104890002014804240168042E0888042209480426A
:1048A000B00404400853A24230FC06400000074018
:1048B000A5040740002817DB00F01F0201219140EA
:1048C000F84A430942F8231000BF00BF00BFBFF3FE
:1048D0004F8F00BF00BF00BF00BF00BF00BFBFF3CE
:1048E0006F8F00BF00BF00BF7047EF4909884AF2D1
:1048F00002521143EC4A118001784278012A01D01A
:10490000012200E0002241EA82018278012A01D0DE
:10491000012200E0002241EAC201C27841EA02110C
:10492000E14A921C11704179012901D0012100E076
:104930000021DD4AD21C127861F34102DA49C91C18
:104940000A700179012901D0012100E00021D64A35
:10495000D21C127861F30002D349C91C0A70817914
:10496000C27941EA0211D04A121D1170027ACE4971
:10497000491D097862F38201CB4A521D1170511F03
:1049800009884FF6FD72114041F42541C74AA2F84B
:10499000FE137047C44800884AF208510843C349CF
:1049A000A1F8FE03C0481530007800F0DD00BE49D4
:1049B00015310870BC4800884FF6F771084040F484
:1049C0002540BA49A1F8FE03B74800884AF20251CF
:1049D0000843B649A1F8FE030846808920F4004048
:1049E00000F50040888172B6AF48801C007820F046
:1049F00080008030AC49891C0870002002E000BFB4
:104A0000411CC8B20A28FAD362B6A74800884FF6FC
:104A1000FD71084040F42540A449A1F8FE0330BFD1
:104A20007047A14A12884AF202531A439F4BA3F8D7
:104A3000FE23012908D19C4A921D1278C3B21A4361
:104A4000994B9B1D1A7006E0974A921D127882437B
:104A5000954B9B1D1A70944A12884FF6FD731A40AD
:104A600042F42542914BA3F8FE2370478E4A1288E8
:104A70004AF202531A438D4BA3F8FE23012908D1B1
:104A8000894AD21D1278C3B21A43874BDB1D1A70B4
:104A900006E0854AD21D12788243834BDB1D1A70D3
:104AA000814A12884FF6FD731A4042F425427F4B2B
:104AB000A3F8FE2370477C4A12884AF202531A4335
:104AC0007A4BA3F8FE23012908D1774A08321278DD
:104AD000C3B21A43744B08331A7006E0724A0832A4
:104AE00012788243704B08331A706F4A12884FF65F
:104AF000FD731A4042F425426C4BA3F8FE23704725
:104B0000694909884AF202521143674A11800178C3
:104B1000427841EA4201827841EA8201C27841EA60
:104B2000C201027941EA021141EA4211827941EA65
:104B300082115D4A093211705B4909884FF6FD7296
:104B4000114041F42541594AA2F8FE13704701462D
:104B500055480A30007800EA01020AB10120704786
:104B60000020FCE7014650480B30007800EA0102C3
:104B70000AB1012070470020FCE74B4909884AF23E
:104B800002521143494AA2F8FE1347490A310978F3
:104B90008143454A0A321170434909884FF6FD7234
:104BA000114041F42541414AA2F8FE1370473E49A5
:104BB00009884AF2025211433C4AA2F8FE133A49CC
:104BC0000B3109788143384A0B3211703649098814
:104BD0004FF6FD72114041F42541344AA2F8FE130C
:104BE0007047314909884AF2025211432F4AA2F80C
:104BF000FE13012801D1012100E000212A4A0C32D4
:104C0000127861F3C71228490C310A7026490988C5
:104C10004FF6FD72114041F42541244AA2F8FE13DB
:104C20007047234A1269234B1A43214B1A61012909
:104C300004D11A46126882431A6004E01C4A1268C2
:104C400002431B4B1A601B4A521E194B1A617047D4
:104C5000012905D1164A52688243154B5A6004E077
:104C6000134A52680243124B5A607047012905D11A
:104C70000F4A926882430E4B9A6004E00C4A926895
:104C800002430B4B9A607047012905D1084AD2684C
:104C90008243074BDA6004E0054AD2680243044BC2
:104CA000DA60704780E100E0FE43054000400540C7
:104CB000008004400100A5A501460020FA4A1288A0
:104CC0004AF203531A43F84B1A804A788B7842EA27
:104CD0004302F64B9A81CA788AB9F44A263212788E
:104CE00002F00702052A01D1042008E0EF4A2A3227
:104CF000127822F00102521CEC4B83F82A20EA4A77
:104D0000D21C127822F00202E74BDB1C1A70CA7820
:104D1000012A01D0012200E00022E34BDB1C1B78BA
:104D200062F30003E04AD21C13700B78127863F32D
:104D30008712DD4BDB1C1A70DA1E12884FF6FC73EB
:104D40001A4042F42542D94BA3F8FE2370470129AB
:104D500005D1D74A126D0243D54B1A6504E0D44AF7
:104D6000126D8243D24B1A657047CF4800884AF2D1
:104D700002510843CD49A1F8FE030846808920F47A
:104D800000408881C848801C007820F08000C64917
:104D9000891C0870881E00884FF6FD71084040F499
:104DA0002540C249A1F8FE0330BF7047BE490988BB
:104DB0004AF202521143BC4A11800178427841EA1A
:104DC0004201827841EA8201C27841EAC201027955
:104DD00041EA0211427941EA4211827941EA8211A3
:104DE000C27941EAC211027A41EA0221AF4A516115
:104DF00041899161AC4909884FF6FD72114041F437
:104E00002541AA4AA2F8FE137047A74909884AF229
:104E100003521143A54AA2F8FE13012801D0012133
:104E200000E00021A04A2D32127861F3C7129E499A
:104E30002D310A709C4909884FF6FC72114041F4EB
:104E400025419A4AA2F8FE137047974909884AF209
:104E500002521143944A11808278018862F31F3113
:104E6000C27841EA4231027941EAC231914A118065
:104E70008D4909884FF6FD72114041F425418B4A56
:104E8000A2F8FE137047884909884AF20852114374
:104E9000854A11800178427841EA4201827841EAEC
:104EA0008201C27841EA0212017942EA4112417953
:104EB00042EA81117C4A153211708179C943027A24
:104EC00041EA4201C279D24341EA0211427A41EAFF
:104ED0004211754A16321170817AC27A41EA021182
:104EE000714A17321170017B427B41EA02116F4A0D
:104EF00082F8E0101146B1F8FE134FF6F772114038
:104F000041F42541684A11807047674909884AF28F
:104F100008521143654AA2F8FE13012801D101216C
:104F200000E00021604A1432127861F345125E49B4
:104F300014310A705C4909884FF6F772114041F448
:104F400025415A4AA2F8FE137047574909884AF288
:104F500008521143554AA2F8FE13012801D101213C
:104F600000E00021504A1432127861F386124E4953
:104F700014310A704C4909884FF6F772114041F418
:104F800025414A4AA2F8FE137047474909884AF268
:104F900008521143454AA2F8FE13012801D101210C
:104FA00000E00021404A1432127861F300023E49C9
:104FB00014310A703C4909884FF6F772114041F4E8
:104FC00025413A4AA2F8FE1370470146002211B16A
:104FD00001290CD105E03548E1300078C0F34002EA
:104FE00006E03248E1300078C0F3401200E000BF34
:104FF00000BF012A01D1012070470020FCE72A49A7
:1050000009884AF208521143284AA2F8FE130128DF
:1050100001D0012100E00021234AD21C127861F363
:1050200041022149C91C0A70C91E09884FF6F7724E
:10503000114041F425411D4AA2F8FE1370471A4958
:1050400009884AF208521143184AA2F8FE130128AF
:1050500001D0012100E00021134AD21C127861F333
:1050600000021149C91C0A70C91E09884FF6F7725F
:10507000114041F425410D4AA2F8FE1370472DE975
:10508000F04140F2FF140027002509E0A80000F1DC
:10509000E020D0F80001084941F82500681CC5B29D
:1050A000052DF3D380250EE0FE430540004005406A
:1050B0000010054000C404401082FF1F2846FFF77F
:1050C000F9FB681CC5B2902DF8D300254BE1FE48D2
:1050D000042101FB05063068C0F30804B4F5D87F4D
:1050E00032D0402C30D0512C2ED0522C2CD0562CDB
:1050F0002AD0B4F5D07F27D040F2B110844223D01B
:10510000B4F5D97F20D0572C1ED0ECB1012C1BD088
:10511000022C19D0032C17D0042C15D0052C13D039
:10512000062C11D0072C0FD0082C0DD0092C0BD039
:105130000A2C09D00B2C07D00C2C05D00D2C03D039
:105140000E2C01D00F2C70D13068C0F308000C2851
:105150006CD008DC6BD2DFE800F0737B858D959D09
:10516000A5ADB5BDC5CD56283ED00EDC402823D018
:1051700006DC0D2874D00E2873D00F2857D1D9E043
:10518000512821D05228F9D126E0B0F5D87F0CD093
:1051900005DC57284CD0B0F5D07FEFD12CE0A0F241
:1051A000B11088B30128E9D137E0C848006810B9C8
:1051B0002846FFF77FFBC6E0C4480838006810B9EE
:1051C0002846FFF777FBBEE0C0481038006810B9EA
:1051D0002846FFF76FFBB6E0BC480C38006810B9F2
:1051E0002846FFF767FBAEE0B8481438006810B9EE
:1051F0002846FFF75FFBA6E0B4481838006810B9EE
:105200002846FFF757FB9EE0FFE7B04820380068CC
:1052100010B92846FFF74EFB95E0AC481C380068F3
:1052200010B92846FFF746FB8DE08DE06AE089E083
:10523000A6482438006810B92846FFF73BFB82E0F7
:10524000A2486438006810B92846FFF733FB7AE0BB
:105250009E486038006810B92846FFF72BFB72E0C3
:1052600058E05FE099485C38006810B92846FFF7BD
:1052700021FB68E095485838006810B92846FFF7C8
:1052800019FB60E091485438006810B92846FFF7D0
:1052900011FB58E08D485038006810B92846FFF7D8
:1052A00009FB50E089484C38006810B92846FFF7E0
:1052B00001FB48E085484838006810B92846FFF7E8
:1052C000F9FA40E081484438006810B92846FFF7F1
:1052D000F1FA38E07D484038006810B92846FFF7F9
:1052E000E9FA30E079483C38006810B92846FFF701
:1052F000E1FA28E075483838006810B92846FFF709
:10530000D9FA20E071483438006810B92846FFF710
:10531000D1FA18E06D483038006810B92846FFF718
:10532000C9FA10E069482C38006810B92846FFF720
:10533000C1FA08E065482838006810B92846FFF728
:10534000B9FA00E000BF0CE03068C0F3080040F29A
:10535000FF11884203D02846FFF7ACFA01E004278A
:1053600004E0681CC5B2802DFFF4B1AE00BF384622
:10537000BDE8F081002109E0554850F8212088005F
:1053800000F1E020C0F80021481CC1B20529F3D388
:10539000002070471FB504464E48006803904D48F2
:1053A000406802904B48806801904A48C06800906D
:1053B0004948007800F00700052801D0052C09D1E4
:1053C000464844490860C01248608860C8600120AF
:1053D000FBF72FFA424800884AF2035108433E493E
:1053E0002639A1F8FE03084690F8260064F302006F
:1053F00081F826000846B0F8FE034FF6FC7108401D
:1054000040F4254034492639A1F8FE03FAF76EFF2F
:105410000120FBF70EFA2F490398086002984860B4
:10542000019888600098C8600120FBF702FA1FBD50
:1054300038B50020009000242A4800682A490870E6
:105440002548007800F007002849087022482638CF
:10545000B0F8FE034AF2035108431F492639A1F868
:10546000FE032148007888B100201E49086000BF73
:1054700019481630007800F001040098401C009094
:105480000098B0F5805F01D2012CF1D11748007867
:1054900018B116480078052813D11248403000682A
:1054A000134908700846007840B100200D4940318A
:1054B000086000BF00BF00BF00BF00BF0120FFF7B2
:1054C00069FF0748008815E05C100540640AA242A5
:1054D0001082FF1F0080044026400540EEFAFFFFC7
:1054E000FE430540C006A8420980FF1F0D80FF1F34
:1054F0000A80FF1F4FF6FC71084040F425404949DF
:10550000A1F8FE0338BD10B5474800884AF20351A0
:1055100008434449A1F8FE034448007818B14348C1
:10552000007805280DD1424801783E48383000788F
:1055300061F300003B4981F838003C480078FFF7F0
:1055400029FF3C48017837483630007861F3000085
:10555000344981F83600344800884FF6FC71084021
:1055600040F425402F49A1F8FE0310BD10B572B6D6
:10557000FFF75EFF01203049087062B610BD10B51C
:1055800072B600202C490870FFF7BDFF62B610BD4F
:1055900010B529480078012805D12848007801284D
:1055A00001D1FFF745FF25480078401E23490870C8
:1055B00010BD10B521480078401C204908701E48D5
:1055C0000078012801D1FFF79EFF10BD10B5FFF74D
:1055D00056FDFFF7CBFF144800884AF202510843FA
:1055E0001049A1F8FE030846808920F4004000F528
:1055F000004088810C48801C007820F080000A4917
:10560000891C0870881E00884FF6FD71084040F420
:1056100025400449A1F8FE0330BFFFF7B0FFFFF7B4
:10562000A9FE10BD00400540FE4305400D80FF1F50
:105630000A80FF1F0980FF1F0C80FF1F0B80FF1FC8
:105640001FB50246002303930293019300930420A5
:10565000FE4B9A4208D0FE4B9A4205D0FD4B9A422F
:1056600002D0FD4B9A427DD100297BD06FF00C0314
:10567000D360DB07D3600023136153614FF6FF73E0
:10568000936000239361009B23F020030093029B0F
:1056900023F0807302934C78039B64F3010303931C
:1056A0008C78029B64F30C330293CC78029B64F3F6
:1056B0001C7302930C79019B64F34D3301930C78B6
:1056C000019B64F3CC2301934B7923B1012B07D0C9
:1056D000022B1DD10FE0029B23F48063029318E09C
:1056E000029B23F400730293029B23F4806303F56F
:1056F000806302930DE0029B23F4007303F50073B3
:105700000293029B23F4806303F58063029300E01D
:1057100000BF00BF0C7A009B64F349230093CC794F
:10572000029B64F3DF7302938C79029B64F3CF33A3
:105730000293039B946963F301049461039B936157
:10574000029BD46863F30004D460029B5C08D368B6
:1057500064F34103D360029B9C08D36864F3820323
:10576000D36000E0BAE0029BDC08D36864F3C303B3
:10577000D360029B1C09D36864F30413D360029BBB
:105780005C09D36864F34513D360029B9C09D3681A
:1057900064F38613D360029BDC09D36864F3C713F8
:1057A000D3609DF809405473029B5C0AD36864F38C
:1057B0004923D360029B9C0AD36864F38A23D36095
:1057C0009DF809405473029B1C0BD36864F30C339F
:1057D000D3609DF809405473029BDC0BD36864F3DB
:1057E000CF33D360029B1C0CD36864F31043D360A7
:1057F000029B5C0CD36864F35143D3609DF80A406C
:105800009473029BDC0CD36864F3D343D360029B94
:105810001C0DD36864F31453D3609DF80A4094734D
:10582000029B1C0ED36864F31863D3609DF80B4091
:10583000D473029B1C0FD36864F31C73D360029B68
:105840005C0FD36864F35D73D360029B9C0FD368D5
:1058500064F39E73D360029BDC0FD36864F3DF7341
:10586000D360019B146963F300041461BDF8043034
:105870001382019BDC0A136964F3CC231361019B3F
:105880005C0B136964F34D331361BDF80540A2F856
:1058900011409DF80740D4749DF800301375009BAB
:1058A0005C09536964F345135361BDF8003093827A
:1058B000009B5C0A536964F34923536102F11403AA
:1058C000BDF80140A2F81540009B5C0D536964F3DC
:1058D000575353619DF80340D475002004B010BDA8
:1058E0001FB5024600230393029301930093042003
:1058F000564B9A4208D0564B9A4205D0554B9A4285
:1059000002D0554B9A427DD100297BD06FF00C0319
:10591000D360DB07D3600023136153614FF6FF733D
:10592000936000239361009B23F020030093029B6C
:1059300023F0807303F1807302938C78029B64F3ED
:105940001C7302934C78039B64F3010303930C785C
:10595000019B64F3CC230193CC78009B64F349232F
:105960000093039B946963F301049461039B936127
:10597000029BD46863F30004D460029B5C08D36884
:1059800064F34103D360029B9C08D36864F38203F1
:10599000D360029BDC08D36864F3C303D360029B2B
:1059A0001C09D36864F30413D360029B5C09D368B9
:1059B00064F34513D360029B9C09D36864F3861398
:1059C000D360029BDC09D36864F3C713D3609DF8EE
:1059D00009405473029B5C0AD36864F34923D36083
:1059E000029B9C0AD36864F38A23D3609DF8094024
:1059F0005473029B1C0BD36864F30C33D3609DF883
:105A0000094000E08BE05473029BDC0BD36864F325
:105A1000CF33D360029B1C0CD36864F31043D36074
:105A2000029B5C0CD36864F35143D3609DF80A4039
:105A30009473029BDC0CD36864F3D343D360029B62
:105A40001C0DD36864F31453D36007E000D0014009
:105A500000D4014000100240001402409DF80A40AA
:105A60009473029B1C0ED36864F31863D3609DF893
:105A70000B40D473029B1C0FD36864F31C73D36078
:105A8000029B5C0FD36864F35D73D360029B9C0F31
:105A9000D36864F39E73D360029BDC0FD36864F316
:105AA000DF73D360019B146963F300041461BDF8D4
:105AB00004301382019BDC0A136964F3CC23136165
:105AC000019B5C0B136964F34D331361BDF8054012
:105AD000A2F811409DF80740D4749DF8003013756A
